:020000020000FC
:0200000033C00B
:0200040018954D
:02000800189549
:02000C00189545
:02001000189541
:0200140018953D
:02001800189539
:02001C00189535
:02002000189531
:0200240018952D
:02002800189529
:02002C00189525
:02003000189521
:0200340018951D
:02003800189519
:02003C00189515
:02004000189511
:0200440018950D
:02004800189509
:02004C00189505
:02005000189501
:020054001895FD
:020058001895F9
:02005C001895F5
:0200600014C0CA
:020064001895ED
:100068000FEF0DBF08E00EBF02E30093BA00F8944B
:10007800209A229A239A249A28982A982B982C987E
:100088003FC00091B900087F0036A9F0003799F009
:100098000038A9F0003999F0083809F10839F9F061
:1000A800003A49F0083A11F1083B11F1003C11F10E
:1000B800083C11F1189505EC0093BC001FC0009195
:1000C800BB0001D01BC00A93463029F005EC009311
:1000D800BC004395089505E80093BC000FC000914B
:1000E800BB000A9308E80093BC0008C0000006C0E3
:1000F800000004C0000002C0000000C078941895F9
:10010800F894D1E0C4E100E00993099309930993B5
:10011800099309930993099340E02DD078941FEF30
:100128002FEF3FEF1A951030E9F72A952030E9F7BD
:100138003A953030E9F7F894D1E0C4E109910038F4
:1001480089F0013081F0003079F0003171F0083029
:1001580069F0003961F0083859F0013151F009307F
:1001680049F0CECF0CC015C082CF1DC026C02FC00D
:1001780038C041C04AC005E40093BC000895F89413
:10018800209A229A239A249A289A2A982B982C986B
:10019800B7CFF894209A229A239A249A28982A9AD0
:1001A8002B982C98ADCFF894209A229A239A249AC7
:1001B80028982A982B9A2C98A3CFF894209A229AB8
:1001C800239A249A28982A982B982C9A99CFF894AD
:1001D800209A229A239A249A289A2A982B9A2C9819
:1001E8008FCFF894209A229A239A249A289A2A98A8
:1001F8002B982C9A85CFF894209A229A239A249A9D
:1002080028982A9A2B9A2C987BCFF894209A229A8D
:0E021800239A249A28982A9A2B982C9A71CF10
:00000001FF
