:020000020000FC
:0200000033C00B
:0200040018954D
:02000800189549
:02000C00189545
:02001000189541
:0200140018953D
:02001800189539
:02001C00189535
:02002000189531
:0200240018952D
:02002800189529
:02002C00189525
:02003000189521
:0200340018951D
:02003800189519
:02003C00189515
:02004000189511
:0200440018950D
:02004800189509
:02004C00189505
:02005000189501
:020054001895FD
:020058001895F9
:02005C001895F5
:0200600014C0CA
:020064001895ED
:100068000FEF0DBF08E00EBF02E30093BA00F8944B
:10007800209A229A239A249A28982A982B982C987E
:1000880041C00091B900087F0036A9F0003799F007
:100098000038A9F0003999F0083809F10839F9F061
:1000A800003A49F0083A19F1083B19F1003C19F1F6
:1000B800083C19F1189505EC0093BC0020C000918C
:1000C800BB0001D01CC00A93463029F005EC009310
:1000D800BC004395089505E80093BC0010C000914A
:1000E800BB000A9308E80093BC0055E008C0000074
:1000F80006C0000004C0000002C0000000C07894E0
:1001080063951895F894D1E0C4E100E00993099348
:1001180009930993099309930993099340E025D01A
:100128007894553011F06B30E0F3F894D1E0C4E1E5
:100138000991003889F0013081F0003079F0003100
:1001480071F0083069F0003961F0083859F0013170
:1001580051F0093049F08BCF0EC017C088CF1FC0AF
:1001680028C031C03AC043C04CC005E40093BC006D
:1001780060E052E00895F894209A229A239A249AEB
:10018800289A2A982B982C98BDCFF894209A229ACE
:10019800239A249A28982A9A2B982C98B3CFF894C3
:1001A800209A229A239A249A28982A982B9A2C984B
:1001B800A9CFF894209A229A239A249A28982A98C0
:1001C8002B982C9A9FCFF894209A229A239A249AB3
:1001D800289A2A982B9A2C9895CFF894209A229AA4
:1001E800239A249A289A2A982B982C9A8BCFF89499
:1001F800209A229A239A249A28982A9A2B9A2C98F9
:1002080081CFF894209A229A239A249A28982A9A95
:060218002B982C9A77CF11
:00000001FF
