:020000020000FC
:0200000033C00B
:0200040018954D
:02000800189549
:02000C00189545
:02001000189541
:0200140018953D
:02001800189539
:02001C00189535
:02002000189531
:0200240018952D
:02002800189529
:02002C00189525
:02003000189521
:0200340018951D
:02003800189519
:02003C00189515
:02004000189511
:0200440018950D
:02004800189509
:02004C00189505
:02005000189501
:020054001895FD
:020058001895F9
:02005C001895F5
:020060000CC0D2
:020064001895ED
:100068000FEF0DBF08E00EBF02E30093BA00F8944B
:100078003FC00091B900087F0036A9F0003799F019
:100088000038A9F0003999F0083809F10839F9F071
:10009800003A49F0083A11F1083B11F1003C11F11E
:1000A800083C11F1189505EC0093BC001FC00091A5
:1000B800BB0001D01BC00A93463029F005EC009321
:1000C800BC004395089505E80093BC000FC000915B
:1000D800BB000A9308E80093BC0008C0000006C0F3
:1000E800000004C0000002C0000000C07894189509
:1000F800F894D1E0C4E100E00993099309930993C6
:10010800099309930993099340E02DD078941FEF40
:100118002FEF3FEF1A951030E9F72A952030E9F7CD
:100128003A953030E9F7F894D1E0C4E10991003804
:1001380089F0013081F0003079F0003171F0083039
:1001480069F0003961F0083859F0013151F009308F
:1001580049F0CECF0CC00DC08ACF0DC00EC00FC065
:1001680010C011C012C005E40093BC000895F894B3
:10017800BFCFF894BDCFF894BBCFF894B9CFF8941B
:0E018800B7CFF894B5CFF894B3CFF894B1CFB9
:00000001FF
