:020000020000FC
:0200000033C00B
:0200040018954D
:02000800189549
:02000C00189545
:02001000189541
:0200140018953D
:02001800189539
:02001C00189535
:02002000189531
:0200240018952D
:02002800189529
:02002C00189525
:02003000189521
:0200340018951D
:02003800189519
:02003C00189515
:02004000189511
:0200440018950D
:02004800189509
:02004C00189505
:02005000189501
:020054001895FD
:020058001895F9
:02005C001895F5
:060060000C944400189509
:100068000FEF0DBF08E00EBF02E00093B80000E0FC
:1000780004B90000289A299A2A9A2B9A0C94A70066
:10008800F8940FB70F930091B900087F0030B9F0CA
:100098000830C9F00031A9F00831C1F00032D1F0C0
:1000A8000832D1F00033C9F00833D1F00034D1F070
:1000B8000834D1F00035D1F0083501F121C03ED027
:1000C8001FC03CD01DC0042F27D01AC00A913395F9
:1000D80023D016C033D014C025C030D015E010C0CE
:1000E8002DD00EC027D00CC029D00AC00091BB006B
:1000F80009933395373041F01DD002C009C000C0C4
:1001080078940F910FBF189505E80093BC00F8CFBD
:100118000BEB099313D0F4CF0093BB0005E80093D1
:10012800BC000895383021F00A91F6DF3395E8CF06
:1001380005D0E6CF05EC0093BC00089504E90093D0
:10014800BC0021E00895F894189B1DC0199B20C09D
:100158001A9B23C01B9B26C02AC030E012E020E077
:10016800C8E2D1E009930FEF099309930993099322
:1001780009930993099305EA0093BC007894153014
:1001880009F0FDCF0895F89442E300E8E6DFDBCFFD
:10019800F89442E301E0E1DFD6CFF89442E308E0C7
:1001A800DCDFD1CFF89442E300E1D7DFCCCFF8947D
:0801B80042E300E0D2DFC7CFF3
:00000001FF
