:020000020000FC
:0200000033C00B
:0200040018954D
:02000800189549
:02000C00189545
:02001000189541
:0200140018953D
:02001800189539
:02001C00189535
:02002000189531
:0200240018952D
:02002800189529
:02002C00189525
:02003000189521
:0200340018951D
:02003800189519
:02003C00189515
:02004000189511
:0200440018950D
:02004800189509
:02004C00189505
:02005000189501
:020054001895FD
:020058001895F9
:02005C001895F5
:060060000C944600189507
:100068000FEF0DBF08E00EBF02E00093B80000E0FC
:1000780004B907E005B90000289A299A2A9A2B9A08
:100088000C94AF00F8940FB70F930091B900087F54
:100098000030B9F00830D9F00031B1F00831D1F0B2
:1000A8000032E1F00832E9F00033E1F00833E9F01A
:1000B8000034F1F00834F1F00035F9F0083529F191
:1000C80026C045D053E023C042D053E020C0062FBD
:1000D8002BD01DC00A91439527D019C038D053E0C2
:1000E80016C028C034D053E012C031D053E00FC03E
:1000F8002AD00DC02CD053E00AC00091BB00099350
:100108004395473041F01FD002C009C000C0789421
:100118000F910FBF189505E80093BC00F8CF0BEBC3
:10012800099315D052E0F3CF0093BB0005E8009384
:10013800BC000895483021F00A91F6DF4395E7CFD7
:1001480006D052E0E4CF05EC0093BC00089504E922
:100158000093BC000895F894189B2AC0199B2DC0E1
:100168001A9B30C01B9B33C037C040E051E0C8E247
:10017800D1E009930FEF0993099309930993099320
:100188000993099305EA0093BC007894533019F356
:100198005230E1F7089540E051E0C0E3D1E005EACC
:1001A8000093BC0078945330B1F25230E1F70895CF
:1001B800F89462E300E8D9DFCECFF89462E301E077
:1001C800D4DFC9CFF89462E308E0CFDFC4CFF89456
:1001D80062E300E1CADFBFCFF89462E300E0C5DF65
:0201E800BACF8C
:00000001FF
