:020000020000FC
:0200000033C00B
:0200040018954D
:02000800189549
:02000C00189545
:02001000189541
:0200140018953D
:02001800189539
:02001C00189535
:02002000189531
:0200240018952D
:02002800189529
:02002C00189525
:02003000189521
:0200340018951D
:02003800189519
:02003C00189515
:02004000189511
:0200440018950D
:02004800189509
:02004C00189505
:02005000189501
:020054001895FD
:020058001895F9
:02005C001895F5
:060060000C944400189509
:100068000FEF0DBF08E00EBF02E00093B80000E0FC
:1000780004B90000289A299A2A9A2B9A0C94A50068
:10008800F8940FB70F930091B900087F0030B9F0CA
:100098000830C9F00031A9F00831C1F00032D1F0C0
:1000A8000832D1F00033C9F00833C9F00034C9F080
:1000B8000834C9F00035C9F00835F9F020C03DD042
:1000C8001EC03BD01CC0062F26D019C00A914395EC
:1000D80022D015C032D013C024C02FD010C02DD0CC
:1000E8000EC027D00CC029D00AC00091BB000993CC
:1000F8004395473041F01DD002C009C000C0789434
:100108000F910FBF189505E80093BC00F8CF0BEBD3
:10011800099313D0F4CF0093BB0005E80093BC000B
:100128000895483021F00A91F6DF4395E8CF05D0CD
:10013800E6CF05EC0093BC00089504E90093BC00E9
:100148000895F894189B24C0199B27C01A9B2AC0AD
:100158001B9B2DC031C040E0C8E2D1E009930FEFEE
:10016800099309930993099309930993099305EA54
:100178000093BC0078941FEF2FEF3FEF1A951030D3
:10018800E9F72A952030E9F73A953030E9F70895EC
:10019800F89462E300E8DFDFD4CFF89462E301E08B
:1001A800DADFCFCFF89462E308E0D5DFCACFF8945E
:1001B80062E300E1D0DFC5CFF89462E300E0CBDF73
:0201C800C0CFA6
:00000001FF
