:020000020000FC
:0200000033C00B
:0200040018954D
:02000800189549
:02000C00189545
:02001000189541
:0200140018953D
:02001800189539
:02001C00189535
:02002000189531
:0200240018952D
:02002800189529
:02002C00189525
:02003000189521
:0200340018951D
:02003800189519
:02003C00189515
:02004000189511
:0200440018950D
:02004800189509
:02004C00189505
:02005000189501
:020054001895FD
:020058001895F9
:02005C001895F5
:060060000C946D001895E0
:100068000000E0E0F1E000270193F930E9F7E03023
:10007800D9F7EE27FF27002411242224332444240F
:1000880055246624772488249924AA24BB24CC24C4
:10009800DD24EE24FF2400271127222733274427B5
:1000A80055276627772788279927AA27BB27CC278C
:1000B800DD270FEF0DBF08E00EBF02E00093B80088
:1000C80000E004B90000289A299A2A9A2B9A0C94DD
:1000D800CE00F8940FB70F930091B900087F003055
:1000E800B9F00830C9F00031A9F00831C1F0003288
:1000F800D1F00832D1F00033C9F00833C9F0003428
:10010800C9F00834C9F00035C9F00835F9F020C045
:100118003DD01EC03BD01CC0062F26D019C00A9166
:10012800439522D015C032D013C024C02FD010C0A0
:100138002DD00EC027D00CC029D00AC00091BB001A
:1001480009934395473041F01DD002C009C000C053
:1001580078940F910FBF189505E80093BC00F8CF6D
:100168000BEB099313D0F4CF0093BB0005E8009381
:10017800BC000895483021F00A91F6DF4395E8CF96
:1001880005D0E6CF05EC0093BC00089504E9009380
:10019800BC000895F894189B26C0199B28C01A9B88
:1001A8002AC01B9B2CC02FC040E0C8E2D1E00993B5
:1001B8000FEF0993099309930993099309930993F5
:1001C80005EA0093BC0078941FE01A95103049F0B6
:1001D8002FEF2A952030C9F33FEF3A953030C9F315
:1001E800FCCFF894089562E300E8DEDFD3CF62E342
:1001F80001E0DADFCFCF62E308E0D6DFCBCF62E3FE
:0E02080000E1D2DFC7CF62E300E0CEDFC3CF5C
:00000001FF
